:100000000C9468000C9490000C9490000C94900058
:100010000C9490000C9490000C9490000C94900020
:100020000C9490000C9490000C9490000C94900010
:100030000C9490000C9490000C9490000C94900000
:100040000C9423040C9490000C9490000C94900059
:100050000C9490000C9490000C9490000C949000E0
:100060000C946D040C9490000123456789ABCDEF8F
:10007000FEDCBA9876543210F0E1D2C34455434FB7
:100080004944003030300000000000250028002BDB
:100090000004040404040404040202020202020331
:1000A000030303030301020408102040800102043B
:1000B00008102001020408102000000008000201BE
:1000C00000000304070000000000000000009B0582
:1000D00011241FBECFEFD8E0DEBFCDBF22E0A0E2EB
:1000E000B1E001C01D92A43EB207E1F711E0A0E02B
:1000F000B1E0E2EBF2E102C005900D92A032B1074F
:10010000D9F710E0C8E6D0E004C02197FE010E94B4
:100110003809C736D107C9F70E94D5050C9457098D
:100120000C94000090E0FC01E754FF4F2491FC0187
:10013000EB55FF4F3491FC01EF56FF4FE491EE2356
:10014000B1F1222339F1233091F038F42130A9F0B4
:10015000223001F584B58F7D12C0273091F0283010
:10016000A1F02430B9F4809180008F7D03C080918C
:1001700080008F77809380000DC084B58F7784BD19
:1001800009C08091B0008F7703C08091B0008F7D4F
:100190008093B000F0E0EE0FFF1FE957FF4FA591ED
:1001A000B4918FB7F894EC91E32BEC938FBF089543
:1001B000E091B401F091B501309729F01092AF01B0
:1001C0001092AE0109940895CF93DF93AC01E091B2
:1001D000B201F091B3013097F1F09091B1018091AB
:1001E000B0019817C0F090E0292F30E026173707AC
:1001F00054F4D901A05EBE4FEA01C20FD31F28817B
:100200002C939F5FF1CF1092B1016093B001CB01AD
:10021000DF91CF910994DF91CF910895CF92DF9232
:10022000EF92FF920F931F93CF93DF936C017A01AC
:100230008B01C0E0D0E0CE15DF0581F0D8016D91D3
:100240008D01D601ED91FC910190F081E02DC60168
:100250000995892B11F02196EECF7E01C701DF9120
:10026000CF911F910F91FF90EF90DF90CF90089565
:1002700085ED8093BC008091BC0084FDFCCF109282
:10028000AD01089540916001262F30E0240F311D0B
:1002900021323105DCF42091AD012430C9F4FC0198
:1002A00080E090E0861758F4309160012191DC01E4
:1002B000A05CBE4FA30FB11D2C930196F3CF80918C
:1002C0006001680F6093600180E0089581E0089507
:1002D00082E008950895E091B1018091B001E8179E
:1002E00030F4F0E0E05EFE4F808190E008958FEF03
:1002F0009FEF08959091B1018091B001981750F44B
:10030000E92FF0E0E05EFE4F208130E09F5F9093A8
:10031000B10102C02FEF3FEFC90108958091B001F4
:1003200090E02091B101821B91090895CF93DF9352
:10033000CB01EA01642F0E944201CE01DF91CF91EF
:100340000895CF93DF931F92CDB7DEB7698361E045
:10035000CE0101960E94420181E090E00F90DF9172
:10036000CF9108952F923F924F925F926F927F921A
:100370008F929F92AF92BF92CF92DF92EF92FF92B5
:100380000F931F93CF93DF93CDB7DEB7A1970FB62F
:10039000F894DEBF0FBECDBFFC01EC5BFF4F2081A8
:1003A00033E03227DC01A30FB11D14966C932F5F4D
:1003B0002083203409F0B6C1319680809180A280DC
:1003C000B38089869A86AB86BC863496A080B1803D
:1003D000C280D380AD86BE86CF86D88A3496C08050
:1003E000D180E280F380C98ADA8AEB8AFC8A34966B
:1003F000E080F18002811381ED8AFE8A0F8B188FD5
:1004000034960081118122813381098F1A8F2B8FBD
:100410003C8F0D8F1E8F2F8F38A329853A854B85F2
:100420005C852D833E834F835887CD84DE84EF84A3
:10043000F8884D895E896F89788D49835A836B83EB
:100440007C8309891A892B893C89212C312C29A28A
:10045000522D5031C8F449815A816B817C814027EB
:100460005127622773274C215D216E217F218980CE
:100470009A80AB80BC80482559256A257B25475644
:1004800056486D47754A99C0422D4F703C0154E063
:10049000459F600C711C1124D1011D96AF70BB27C4
:1004A0001196AA0FBB1FAA0FBB1FA80FB91FF101FE
:1004B0003896EF70FF273196EE0FFF1FEE0FFF1FEC
:1004C000E80FF91F8D909D90AD90BC9040815181B7
:1004D00062817381482559256A257B25D3011496AD
:1004E0008D909D90AD90BC901797482559256A2511
:1004F0007B25F1013296EF70FF273196EE0FFF1F3B
:10050000EE0FFF1FE80FF91F80809180A280B3805B
:10051000482559256A257B25440F551F661F771FDF
:10052000411DF3014483558366837783F9A1F43138
:1005300008F491CFF83288F449815A816B817C812B
:1005400040275127622773274C255D256E257F257F
:100550004F5554416642714930C049A14C33E8F4CB
:10056000B901A8014C295D296E297F2989809A80CB
:10057000AB80BC80482159216A217B214801590167
:100580008C209D20AE20BF20482959296A297B292B
:1005900044525344644E704710C049815A816B8164
:1005A0007C8140275127622773274C255D256E25C6
:1005B0007F254A525E436D497543A9A1AF70FC0186
:1005C000B4E0AB9FE00DF11D11244D805E806F8083
:1005D0007884ABE17694679457944794AA95D1F7C1
:1005E0008D809E80AF80B884B5E0880C991CAA1CD1
:1005F000BB1CBA95D1F784289528A628B728448033
:10060000558066807780840C951CA61CB71C480D0D
:10061000591D6A1D7B1D8D8C9E8CAF8CB8A0480D1A
:10062000591D6A1D7B1D46015701E2E0B694A7944F
:1006300097948794EA95D1F726013701FEE1440C9F
:10064000551C661C771CFA95D1F7482859286A284A
:100650007B28AFEF2A1A3A0ACD80DE80EF80F8843B
:1006600089809A80AB80BC808D8E9E8EAF8EB8A222
:10067000A0E52A16310459F04D835E836F83788795
:1006800009831A832B833C8393018201E0CEFC0112
:10069000EB5BFF4F89849A84AB84BC84480D591D61
:1006A0006A1D7B1D408351836283738334964D851D
:1006B0005E856F857889560167014A0D5B1D6C1D4B
:1006C0007D1D40835183628373833496C988DA88A1
:1006D000EB88FC884C0C5D1C6E1C7F1C4082518298
:1006E0006282738234964D895E896F89788D040F9A
:1006F000151F261F371F00831183228333833496EF
:10070000498D5A8D6B8D7C8D89809A80AB80BC80A1
:10071000480D591D6A1D7B1D40835183628373837D
:1007200071971082A1960FB6F894DEBF0FBECDBFB1
:10073000DF91CF911F910F91FF90EF90DF90CF90BD
:10074000BF90AF909F908F907F906F905F904F90F1
:100750003F902F900895262FFC01E75AFF4F4081CC
:100760005181628173814F5F5F4F6F4F7F4F408335
:10077000518362837383622F0E94B20181E090E013
:100780000895089580E090E008958091B70188234E
:10079000A9F0E091B90181E08E0F8093B901F0E0FA
:1007A000E654FE4F60819091B801891308C0109201
:1007B000B7011092B9011092B80101C06AE08CE152
:1007C00092E00C94A101CF93892B39F18091120210
:1007D000811123C08091B70181111FC0C1E09091A8
:1007E000B0018091B1019817C1F08CE192E00E94B4
:1007F0007A019091B80121E0290F2093B801E92FE7
:10080000F0E0E654FE4F8083283511F49093B80150
:100810008A3029F7C0931202E2CFCF910895009752
:1008200069F0FC0101900020E9F73197AF01481B06
:10083000590BBC0181E392E00C940E0180E090E042
:1008400008950E943E091F920F920FB60F92112435
:100850002F933F938F939F93AF93BF9380911802F1
:1008600090911902A0911A02B0911B0230911702C7
:1008700023E0230F2D3720F40196A11DB11D05C0E3
:1008800026E8230F0296A11DB11D20931702809325
:10089000180290931902A0931A02B0931B02809140
:1008A000130290911402A0911502B09116020196C4
:1008B000A11DB11D8093130290931402A093150201
:1008C000B0931602BF91AF919F918F913F912F915D
:1008D0000F900FBE0F901F9018951F920F920FB69A
:1008E0000F9211242F933F934F935F936F937F93B6
:1008F0008F939F93AF93BF93EF93FF938091B90032
:10090000887F803609F49CC068F5883209F45BC0A2
:1009100090F4803109F454C038F4882309F4F6C007
:10092000883009F44DC0F6C0883109F44CC08032DB
:1009300009F45DC0EFC0803409F468C048F4803326
:1009400009F455C0883309F0E5C080938301D8C00D
:10095000803509F44FC0883509F45DC0883409F04A
:10096000D9C0D6C0883909F4C7C0A8F4883709F4BB
:1009700067C038F4883609F463C0803709F460C072
:10098000C9C0883809F4B8C0803909F45FC080381C
:1009900009F0C0C05BC0803B09F486C038F4803ADF
:1009A00009F466C0883A09F47FC0B4C0803C09F4F9
:1009B000A7C0883C09F4A4C0883B09F48AC0AAC037
:1009C0008091A60110C09091A5018091A401981773
:1009D00070F5E091A50181E08E0F8093A501F0E014
:1009E000EC57FE4F80818093BB0085EC86C08093DE
:1009F00083018EC0E091A50181E08E0F8093A50157
:100A00008091BB00F0E0EC57FE4F80839091A501F0
:100A10008091A4016EC0E091A50181E08E0F8093CA
:100A2000A5018091BB00F0E0EC57FE4F80838091E0
:100A3000AC0181116DC081E08093AB0184EA61C09B
:100A400083E08093AD0110928201CFCF809182012B
:100A5000803208F051C0E091820181E08E0F8093D6
:100A600082018091BB00F0E0EE59FE4F8083BDCF44
:100A700085EC8093BC001092AD01809182018032A0
:100A800030F4E0918201F0E0EE59FE4F1082609167
:100A9000820170E0E091A701F091A80182E691E067
:100AA00009951092820136C084E08093AD011092C6
:100AB000610110926001E091A901F091AA010995EC
:100AC00080916001811105C081E0809360011092E6
:100AD0004001E091610181E08E0F80936101F0E0BF
:100AE000E05CFE4F80818093BB009091610180911A
:100AF0006001981708F479CF85E88093BC000AC09C
:100B000085EC8093BC001092AD0104C0109283016B
:100B10000E943801FF91EF91BF91AF919F918F910A
:100B20007F916F915F914F913F912F910F900FBEE9
:100B30000F901F90189510921F0210921E0288EEBF
:100B400093E0A0E0B0E08093200290932102A09374
:100B50002202B093230284E091E090931D028093DF
:100B60001C02A8E2B2E080E090E021E2AC01425F2A
:100B70005F4FE1E0F0E08630910510F4E0E0F0E056
:100B8000E40FF51F20935700E491ED93019689300F
:100B9000910561F7109234021092330286E191E0E0
:100BA00090933202809331020895CF93DF93CDB7B3
:100BB000DEB7A9970FB6F894DEBF0FBECDBF78940D
:100BC00084B5826084BD84B5816084BD85B5826052
:100BD00085BD85B5816085BD80916E008160809303
:100BE0006E0010928100809181008260809381006C
:100BF000809181008160809381008091800081607C
:100C0000809380008091B10084608093B1008091D6
:100C1000B00081608093B00080917A0084608093FE
:100C20007A0080917A00826080937A0080917A00C5
:100C3000816080937A0080917A00806880937A0046
:100C40001092C10011E01093B60180E090E00E9484
:100C5000F9088093B60118163CF01093B60161E0D4
:100C600080E090E00E9401091091B6011092B1015C
:100C70001092B0011092AF011092AE011092AD012E
:100C800081E08093AC011092AB0182E10E9492005E
:100C900083E10E9492008091B9008E7F8093B90019
:100CA0008091B9008D7F8093B90088E48093B8006B
:100CB00085E48093BC0088ED90E09093AA01809336
:100CC000A90184EE90E09093A8018093A701110FF1
:100CD0001093BA0083EE93E09093B3018093B20136
:100CE00085EC93E09093B5018093B4010AEB11E099
:100CF0006AE0462E512C612C712C809112028823BF
:100D000009F4CDC18091BA01833219F4E0E0F0E03A
:100D100009958FB7F89420911802309119024091EB
:100D20001A0250911B022CA33DA34EA35FA38FBFB9
:100D30004CE250E05BA34AA3BE016E5D7F4F8AEB9D
:100D400091E00E9490081C01BE016E5D7F4F80E023
:100D500090E00E9490087C01BE016E5D7F4F80E0B4
:100D600090E00E9490081092B8011092B9010E9480
:100D70006208803952E095070CF0F6C0F701970140
:100D8000285D3F4FD70140814A331CF047362CF491
:100D90004755542F5295507F01C050E041814A334E
:100DA00014F4405305C0473614F4475501C040E0E1
:100DB000450F4D933296E217F30729F724E6289F53
:100DC000F001299FF00D1124F9A7E8A7812C912C9F
:100DD000540128A539A5281539050CF4C5C044E1EE
:100DE00050E068E670E086E792E00E94800810928A
:100DF0008A0210928B0210928C0210928D02109235
:100E00007502C1010E940F0419A2A50194016E018F
:100E100081E2C80ED11CCA01B901A30192010E944E
:100E20000F09605DF60162936F01211531054105DF
:100E3000510589F7CF010E940F0460E881E392E039
:100E40000E94B2018091750260E08833B9F781E3B6
:100E500092E00E94B20160E081E392E00E94B20160
:100E600060E081E392E00E94B20180918A02909159
:100E70008B02A0918C02B0918D02BC01CD012DE1BD
:100E800096958795779567952A95D1F781E392E0B6
:100E90000E94B20180918A0290918B02A0918C02F3
:100EA000B0918D02BC01CD0135E19695879577957E
:100EB00067953A95D1F781E392E00E94B201809163
:100EC0008A0290918B02A0918C02B0918D02BC019C
:100ED000CD014DE096958795779567954A95D1F721
:100EE00081E392E00E94B20180918A0290918B028C
:100EF000A0918C02B0918D02BC01CD0155E0969578
:100F00008795779567955A95D1F781E392E00E948E
:100F1000B20160918A02660F660F660F81E392E06C
:100F20000E94B201E6E7F2E06081718182819381E3
:100F30000E943109619371938193919322E0EA3881
:100F4000F20791F744E150E0B70186E792E00E9492
:100F50004309B501A4014F5F5F4F6F4F7F4F892B4E
:100F600031F04A015B0135CF30E020E002C0382D7E
:100F7000292D4FB7F8948091180290911902A091F1
:100F80001A02B0911B024FBF7C014CA15DA1E41A73
:100F9000F50AF80148E511924A95E9F74AE0BE01E1
:100FA0006F5F7F4F832F922F0E94BC08BE016F5F3F
:100FB0007F4F8AEB91E00E945009F80101900020D8
:100FC000E9F731975CE250834AE0BE016F5F7F4FE3
:100FD000C7010E94BC08F80101900020E9F7CF0189
:100FE000BE016F5F7F4F01970E945009F801019089
:100FF0000020E9F7CF0163E870E001970E948908BB
:10100000F80101900020E9F731972CE22083F801E4
:1010100001900020E9F7CF016CE770E001970E9492
:10102000890889E2E82E82E0F82E6701F7018191B4
:101030007F0140E1BE016F5F7F4F90E00E94BC08DE
:10104000F6018081803150F4F80101900020E9F729
:10105000CF016EE171E001970E945009F801019003
:101060000020E9F7CF01BE016F5F7F4F01970E941B
:101070005009F1E3EF16F2E0FF06B9F61092B9015C
:10108000EAEBF1E001900020E9F73197EA5BF140EB
:10109000E093B8011092120221E02093B7018FB7BC
:1010A000F894409118025091190260911A027091BF
:1010B0001B028FBF40E050E0452B09F41ECE0E947A
:1010C00000001BCEFC0188279927E894219120324B
:1010D000E9F3293010F02E30C8F32B3241F02D32D5
:1010E00039F4689404C00E94C708820F911D2191B1
:1010F00020532A30C0F31EF4909581959F4F089598
:10110000FB01DC0102C005900D9241505040D8F720
:101110000895FB01DC0105900D920020E1F7089590
:1011200042EE52E00E9495080895FA01A191B08123
:10113000009719F41097E1F0CD01DC01CD010D907D
:10114000002011F4C00113C0FB012191222319F0EA
:101150002015D9F7F3CFFB012191201519F41E9228
:10116000119606C02223C1F70D900020A1F7D001EF
:10117000FA01A193B0830895BB274A3031F4992333
:1011800022F4BDE2909581959F4F0C94D0087AE0AF
:10119000979F902D879F802D910D11240895BB2737
:1011A000FB015527AA27880F991FAA1FA41710F023
:1011B000A41B83955051B9F7A05DAA3308F0A95D2F
:1011C000A193009779F7B111B1931192CB010C94CF
:1011D000E908DC01FC01672F71917723E1F7329771
:1011E00004C07C916D9370836291AE17BF07C8F302
:1011F0000895F999FECF92BD81BDF89A992780B5DF
:101200000895262FF999FECF1FBA92BD81BD20BD4A
:101210000FB6F894FA9AF99A0FBE01960895A1E2D2
:101220001A2EAA1BBB1BFD010DC0AA1FBB1FEE1F60
:10123000FF1FA217B307E407F50720F0A21BB30BAB
:10124000E40BF50B661F771F881F991F1A9469F727
:1012500060957095809590959B01AC01BD01CF0183
:10126000089569279627692778278727782708957B
:10127000EE0FFF1F0590F491E02D099481E090E0BE
:10128000F8940C945709FB01DC0104C08D91019086
:10129000801921F441505040C8F7881B990B0895DC
:1012A000FB01DC0101900D920020E1F70895F89414
:0212B000FFCF6E
:1012B20000000000A1019601C2036A018E017A01B9
:1012C2006B0100000000AB030E01C203C10330003A
:00000001FF
